{
  "_format": "hh-sol-artifact-1",
  "contractName": "Lottery",
  "sourceName": "contracts/Lottery.sol",
  "abi": [
    {
      "inputs": [
        {
          "internalType": "uint256",
          "name": "_ticketPrice",
          "type": "uint256"
        }
      ],
      "stateMutability": "nonpayable",
      "type": "constructor"
    },
    {
      "anonymous": false,
      "inputs": [
        {
          "indexed": true,
          "internalType": "address",
          "name": "buyer",
          "type": "address"
        },
        {
          "indexed": false,
          "internalType": "uint256",
          "name": "ticketCount",
          "type": "uint256"
        }
      ],
      "name": "TicketPurchased",
      "type": "event"
    },
    {
      "inputs": [],
      "name": "buyTicket",
      "outputs": [],
      "stateMutability": "payable",
      "type": "function"
    },
    {
      "inputs": [],
      "name": "getContractBalance",
      "outputs": [
        {
          "internalType": "uint256",
          "name": "",
          "type": "uint256"
        }
      ],
      "stateMutability": "view",
      "type": "function"
    },
    {
      "inputs": [
        {
          "internalType": "uint256",
          "name": "index",
          "type": "uint256"
        }
      ],
      "name": "getParticipant",
      "outputs": [
        {
          "internalType": "address",
          "name": "",
          "type": "address"
        }
      ],
      "stateMutability": "view",
      "type": "function"
    },
    {
      "inputs": [],
      "name": "getParticipantsCount",
      "outputs": [
        {
          "internalType": "uint256",
          "name": "",
          "type": "uint256"
        }
      ],
      "stateMutability": "view",
      "type": "function"
    },
    {
      "inputs": [],
      "name": "getTicketPrice",
      "outputs": [
        {
          "internalType": "uint256",
          "name": "",
          "type": "uint256"
        }
      ],
      "stateMutability": "view",
      "type": "function"
    },
    {
      "inputs": [],
      "name": "owner",
      "outputs": [
        {
          "internalType": "address",
          "name": "",
          "type": "address"
        }
      ],
      "stateMutability": "view",
      "type": "function"
    },
    {
      "inputs": [
        {
          "internalType": "uint256",
          "name": "",
          "type": "uint256"
        }
      ],
      "name": "participants",
      "outputs": [
        {
          "internalType": "address",
          "name": "",
          "type": "address"
        }
      ],
      "stateMutability": "view",
      "type": "function"
    },
    {
      "inputs": [],
      "name": "selectWinner",
      "outputs": [],
      "stateMutability": "nonpayable",
      "type": "function"
    },
    {
      "inputs": [],
      "name": "ticketPrice",
      "outputs": [
        {
          "internalType": "uint256",
          "name": "",
          "type": "uint256"
        }
      ],
      "stateMutability": "view",
      "type": "function"
    },
    {
      "inputs": [],
      "name": "totalTicketsSold",
      "outputs": [
        {
          "internalType": "uint256",
          "name": "",
          "type": "uint256"
        }
      ],
      "stateMutability": "view",
      "type": "function"
    }
  ],
  "bytecode": "0x6080604052348015600f57600080fd5b50604051610590380380610590833981016040819052602c916045565b600080546001600160a01b03191633179055600355605d565b600060208284031215605657600080fd5b5051919050565b6105248061006c6000396000f3fe6080604052600436106100915760003560e01c80636f9fb98a116100595780636f9fb98a1461014457806387bb7ae0146101575780638da5cb5b1461016c578063cabfaa181461018c578063edca914c146101a157600080fd5b80631209b1f6146100965780631b9db2ef146100bf57806333a99e04146100f757806334701db81461010e57806335c1d34914610124575b600080fd5b3480156100a257600080fd5b506100ac60035481565b6040519081526020015b60405180910390f35b3480156100cb57600080fd5b506100df6100da366004610476565b6101a9565b6040516001600160a01b0390911681526020016100b6565b34801561010357600080fd5b5061010c610226565b005b34801561011a57600080fd5b506100ac60015481565b34801561013057600080fd5b506100df61013f366004610476565b61036a565b34801561015057600080fd5b50476100ac565b34801561016357600080fd5b506003546100ac565b34801561017857600080fd5b506000546100df906001600160a01b031681565b34801561019857600080fd5b506002546100ac565b61010c610394565b60025460009082106101f85760405162461bcd60e51b8152602060048201526013602482015272496e646578206f7574206f6620626f756e647360681b60448201526064015b60405180910390fd5b6002828154811061020b5761020b61048f565b6000918252602090912001546001600160a01b031692915050565b6000546001600160a01b0316331461028e5760405162461bcd60e51b815260206004820152602560248201527f4f6e6c7920746865206f776e65722063616e2063616c6c20746869732066756e60448201526431ba34b7b760d91b60648201526084016101ef565b6000600154116102d25760405162461bcd60e51b815260206004820152600f60248201526e139bc81d1a58dad95d1cc81cdbdb19608a1b60448201526064016101ef565b600254604080514260208083019190915244828401528251808303840181526060909201909252805191012060009161030a916104a5565b90506000600282815481106103215761032161048f565b60009182526020822001546040516001600160a01b03909116925082914780156108fc02929091818181858888f19350505050158015610365573d6000803e3d6000fd5b505050565b6002818154811061037a57600080fd5b6000918252602090912001546001600160a01b0316905081565b60035434146103e55760405162461bcd60e51b815260206004820152601960248201527f5469636b657420707269636520697320696e636f72726563740000000000000060448201526064016101ef565b600180549060006103f5836104c7565b909155505060028054600180820183556000929092527f405787fa12a823e0f2b7631cc41b3ba8828b3321ca811111fa75cd3aa3bb5ace0180546001600160a01b03191633908117909155604051918252907f0668f5b446eb814fe35b3206f43f14bd8567ba04ddaf7a3ee56516929ab22ccb9060200160405180910390a2565b60006020828403121561048857600080fd5b5035919050565b634e487b7160e01b600052603260045260246000fd5b6000826104c257634e487b7160e01b600052601260045260246000fd5b500690565b6000600182016104e757634e487b7160e01b600052601160045260246000fd5b506001019056fea2646970667358221220f81c84ad74fe12058fe686867ad489509d9f8d5f388a887f060911befe5155ef64736f6c634300081b0033",
  "linkReferences": {},
  "deployedLinkReferences": {}
}