{
  "_format": "hh-sol-artifact-1",
  "contractName": "Lottery",
  "sourceName": "contracts/Lottery.sol",
  "abi": [
    {
      "inputs": [
        {
          "internalType": "uint64",
          "name": "subscriptionId",
          "type": "uint64"
        },
        {
          "internalType": "address",
          "name": "vrfCoordinator",
          "type": "address"
        },
        {
          "internalType": "bytes32",
          "name": "_keyHash",
          "type": "bytes32"
        }
      ],
      "stateMutability": "nonpayable",
      "type": "constructor"
    },
    {
      "inputs": [
        {
          "internalType": "address",
          "name": "have",
          "type": "address"
        },
        {
          "internalType": "address",
          "name": "want",
          "type": "address"
        }
      ],
      "name": "OnlyCoordinatorCanFulfill",
      "type": "error"
    },
    {
      "anonymous": false,
      "inputs": [],
      "name": "LotteryReset",
      "type": "event"
    },
    {
      "anonymous": false,
      "inputs": [
        {
          "indexed": true,
          "internalType": "address",
          "name": "buyer",
          "type": "address"
        },
        {
          "indexed": false,
          "internalType": "uint256",
          "name": "amountPaid",
          "type": "uint256"
        }
      ],
      "name": "TicketBought",
      "type": "event"
    },
    {
      "anonymous": false,
      "inputs": [
        {
          "indexed": true,
          "internalType": "address",
          "name": "winner",
          "type": "address"
        },
        {
          "indexed": false,
          "internalType": "uint256",
          "name": "prizeAmount",
          "type": "uint256"
        }
      ],
      "name": "WinnerSelected",
      "type": "event"
    },
    {
      "inputs": [],
      "name": "buyTicket",
      "outputs": [],
      "stateMutability": "payable",
      "type": "function"
    },
    {
      "inputs": [],
      "name": "getContractBalance",
      "outputs": [
        {
          "internalType": "uint256",
          "name": "",
          "type": "uint256"
        }
      ],
      "stateMutability": "view",
      "type": "function"
    },
    {
      "inputs": [],
      "name": "lotteryWallet",
      "outputs": [
        {
          "internalType": "address",
          "name": "",
          "type": "address"
        }
      ],
      "stateMutability": "view",
      "type": "function"
    },
    {
      "inputs": [],
      "name": "maxTickets",
      "outputs": [
        {
          "internalType": "uint256",
          "name": "",
          "type": "uint256"
        }
      ],
      "stateMutability": "view",
      "type": "function"
    },
    {
      "inputs": [],
      "name": "owner",
      "outputs": [
        {
          "internalType": "address",
          "name": "",
          "type": "address"
        }
      ],
      "stateMutability": "view",
      "type": "function"
    },
    {
      "inputs": [
        {
          "internalType": "uint256",
          "name": "",
          "type": "uint256"
        }
      ],
      "name": "participants",
      "outputs": [
        {
          "internalType": "address",
          "name": "",
          "type": "address"
        }
      ],
      "stateMutability": "view",
      "type": "function"
    },
    {
      "inputs": [
        {
          "internalType": "uint256",
          "name": "requestId",
          "type": "uint256"
        },
        {
          "internalType": "uint256[]",
          "name": "randomWords",
          "type": "uint256[]"
        }
      ],
      "name": "rawFulfillRandomWords",
      "outputs": [],
      "stateMutability": "nonpayable",
      "type": "function"
    },
    {
      "inputs": [
        {
          "internalType": "uint256",
          "name": "",
          "type": "uint256"
        }
      ],
      "name": "s_randomWords",
      "outputs": [
        {
          "internalType": "uint256",
          "name": "",
          "type": "uint256"
        }
      ],
      "stateMutability": "view",
      "type": "function"
    },
    {
      "inputs": [],
      "name": "s_requestId",
      "outputs": [
        {
          "internalType": "uint256",
          "name": "",
          "type": "uint256"
        }
      ],
      "stateMutability": "view",
      "type": "function"
    },
    {
      "inputs": [],
      "name": "ticketPrice",
      "outputs": [
        {
          "internalType": "uint256",
          "name": "",
          "type": "uint256"
        }
      ],
      "stateMutability": "view",
      "type": "function"
    },
    {
      "inputs": [],
      "name": "totalTicketsSold",
      "outputs": [
        {
          "internalType": "uint256",
          "name": "",
          "type": "uint256"
        }
      ],
      "stateMutability": "view",
      "type": "function"
    },
    {
      "inputs": [],
      "name": "winner",
      "outputs": [
        {
          "internalType": "address",
          "name": "",
          "type": "address"
        }
      ],
      "stateMutability": "view",
      "type": "function"
    }
  ],
  "bytecode": "0x60a0604052600180546001600160a01b031916731234567890abcdef1234567890abcdef12345678179055662386f26fc1000060025561271060045560088054640186a0000365ffffffffffff1990911617905534801561005f57600080fd5b50604051610a49380380610a4983398101604081905261007e916100d3565b6001600160a01b039091166080819052600080546001600160a01b03191633179055600680546001600160401b03909416600160a01b026001600160e01b03199094169091179290921790915560075561012e565b6000806000606084860312156100e857600080fd5b83516001600160401b03811681146100ff57600080fd5b60208501519093506001600160a01b038116811461011c57600080fd5b80925050604084015190509250925092565b6080516108f961015060003960008181610217015261025901526108f96000f3fe6080604052600436106100a75760003560e01c80639b894703116100645780639b89470314610178578063a364b0771461018e578063dfbf53ae146101ae578063e89e106a146101ce578063edca914c146101e4578063f6eaffc8146101ec57600080fd5b80631209b1f6146100ac5780631fe543e3146100d557806334701db8146100f757806335c1d3491461010d5780636f9fb98a146101455780638da5cb5b14610158575b600080fd5b3480156100b857600080fd5b506100c260025481565b6040519081526020015b60405180910390f35b3480156100e157600080fd5b506100f56100f0366004610759565b61020c565b005b34801561010357600080fd5b506100c260035481565b34801561011957600080fd5b5061012d610128366004610832565b610299565b6040516001600160a01b0390911681526020016100cc565b34801561015157600080fd5b50476100c2565b34801561016457600080fd5b5060005461012d906001600160a01b031681565b34801561018457600080fd5b506100c260045481565b34801561019a57600080fd5b5060015461012d906001600160a01b031681565b3480156101ba57600080fd5b50600b5461012d906001600160a01b031681565b3480156101da57600080fd5b506100c2600a5481565b6100f56102c3565b3480156101f857600080fd5b506100c2610207366004610832565b610458565b336001600160a01b037f0000000000000000000000000000000000000000000000000000000000000000161461028b5760405163073e64fd60e21b81523360048201526001600160a01b037f00000000000000000000000000000000000000000000000000000000000000001660248201526044015b60405180910390fd5b6102958282610479565b5050565b600581815481106102a957600080fd5b6000918252602090912001546001600160a01b0316905081565b600254341461032d5760405162461bcd60e51b815260206004820152603060248201527f596f75206d7573742073656e642065786163746c7920302e303120457468657260448201526f081d1bc8189d5e4818481d1a58dad95d60821b6064820152608401610282565b600454600354106103805760405162461bcd60e51b815260206004820152601960248201527f416c6c207469636b6574732061726520736f6c64206f757421000000000000006044820152606401610282565b6005805460018101825560009182527f036b6384b5eca791c62761152d0c79bb0604c104a5fb6f4eb0703f3154bb3db00180546001600160a01b0319163317905560038054916103cf8361084b565b90915550506001546040516001600160a01b03909116903480156108fc02916000818181858888f1935050505015801561040d573d6000803e3d6000fd5b5060405134815233907f985d112c54c7518a49841fc37640d9ded60112ea7370ca9129c8ed33c3607bc79060200160405180910390a26004546003540361045657610456610576565b565b6009818154811061046857600080fd5b600091825260209091200154905081565b805161048c9060099060208401906106c2565b506000600580549050826000815181106104a8576104a8610872565b60200260200101516104ba9190610888565b9050600581815481106104cf576104cf610872565b60009182526020918290200154600b80546001600160a01b0319166001600160a01b03909216918217905560405147808252927f75060f9e79552df167b73353fee6237a75bb5ba8ea022f77224e32f152138bcb910160405180910390a2600b546040516001600160a01b039091169082156108fc029083906000818181858888f19350505050158015610567573d6000803e3d6000fd5b50610570610674565b50505050565b600454600354146105c15760405162461bcd60e51b8152602060048201526015602482015274131bdd1d195c9e481b9bdd081c9958591e481e595d605a1b6044820152606401610282565b6006546007546008546040516305d3b1d360e41b81526004810192909252600160a01b830467ffffffffffffffff16602483015261ffff8116604483015262010000900463ffffffff166064820152600160848201526001600160a01b0390911690635d3b1d309060a4016020604051808303816000875af115801561064b573d6000803e3d6000fd5b505050506040513d601f19601f8201168201806040525081019061066f91906108aa565b600a55565b600060038190556106879060059061070d565b600b80546001600160a01b03191690556040517fc07cdc0437f4a5523d938e3a96f2e751ce4a8e8784c5ce2316c7f833ac26772090600090a1565b8280548282559060005260206000209081019282156106fd579160200282015b828111156106fd5782518255916020019190600101906106e2565b5061070992915061072e565b5090565b508054600082559060005260206000209081019061072b919061072e565b50565b5b80821115610709576000815560010161072f565b634e487b7160e01b600052604160045260246000fd5b6000806040838503121561076c57600080fd5b82359150602083013567ffffffffffffffff81111561078a57600080fd5b8301601f8101851361079b57600080fd5b803567ffffffffffffffff8111156107b5576107b5610743565b8060051b604051601f19603f830116810181811067ffffffffffffffff821117156107e2576107e2610743565b60405291825260208184018101929081018884111561080057600080fd5b6020850194505b8385101561082357843580825260209586019590935001610807565b50809450505050509250929050565b60006020828403121561084457600080fd5b5035919050565b60006001820161086b57634e487b7160e01b600052601160045260246000fd5b5060010190565b634e487b7160e01b600052603260045260246000fd5b6000826108a557634e487b7160e01b600052601260045260246000fd5b500690565b6000602082840312156108bc57600080fd5b505191905056fea26469706673582212208d67ebecc30f7bf55b3788162c3758f24420f9dca262eaecd8b009b87b1bdcc164736f6c634300081b0033",
  "linkReferences": {},
  "deployedLinkReferences": {}
}